S01000005363616C65544F532E7372656336
S11300000C94E6000C9407010C9407010C9407016E
S11300100C9407010C9407010C9407010C9407013C
S11300200C9407010C9407010C9407010C9407012C
S11300300C9407010C9407010C9490060C9407018E
S11300400C9407010C9407010C9407010C9407010C
S11300500C94FD060C9407010C9407010C94070101
S11300600C9407010C94180A0C94420A0C9407018E
S11300700C9407010C9407010C9407010C940701DC
S11300800C9407010C9407010C9407010C940701CC
S11300900C9407010C9407010C9407010C940701BC
S11300A00C9407010C9407010C9407010C940701AC
S11300B00C9407010C9407010C9407010C9407019C
S11300C00C9407010C9407010C9407010C9407018C
S11300D00C9407010C9407010C9407010C9407017C
S11300E00C9407010C9407010C9407010C9407016C
S11300F00C9407010C9407010C9407010C9407015C
S11301000C9407010C9407010C9407010C9407014B
S11301100C9407010C9407010C9407010C9407013B
S11301200C9407010C9407010C9407010C9407012B
S11301300C9407010C9407010C9407010C9407011B
S11301400C9407010C9407010C9407010C9407010B
S11301500C9407010C9407010C9407010C940701FB
S11301600C9407010C9407010C9407010C940701EB
S11301700C9407010C9407010C9407010C940701DB
S11301800C9407010C9407010C9407010C940701CB
S11301900C9407010C9407010C9407010C940701BB
S11301A00C9407010C9407010C9407010C940701AB
S11301B00C9407010C9407010C9407010C9407019B
S11301C00C9407010C9407010C94A30B11241FBE7B
S11301D0CFEFCDBFDFE5DEBF00E00CBF15E2A0E04E
S11301E0B0E2E0E4FEE100E00BBF02C007900D9234
S11301F0A03CB107D9F728E2A0ECB5E201C01D92FA
S1130200AF39B207E1F70E94E60A0C941E0F0C9472
S1130210000025E2813C920768F145E2813E9407A3
S113022048F5FC0192918291992324F52091C025EF
S113023031E0320F3093C025211104C02FB7209331
S11302406126F8949F778083918320916226309170
S11302506326A901481B590B4093622650936326D9
S11302608091C02581508093C025811103C0809165
S113027061268FBF0895BC0120E030E090E014C0F7
S1130280FB01EF53FA4DDF01A20FB31F4D915C91B7
S11302904115510581F0CA0188279078911104C055
S11302A0240F351F20833183911105C0CB01820FA8
S11302B0931F809728F308950F931F93CF93DF9391
S11302C08F31910508F073C04091622650916326E6
S11302D020E230E0241B350B8C010E5F1F4F2017EA
S11302E0310708F467C02091C02531E0320F309304
S11302F0C025211104C02FB720936126F894EC0186
S113030080E090E00E943B0120E030E080E090E05B
S113031011C0FC01EF53FA4D408151819A013F779E
S1130320552334F02115310541F02017310728F405
S1130330820F931F8032910560F38032910548F457
S1130340232B39F040E0BE018F539A4D0E94E40103
S113035036C08032910568F08091C0258150809329
S1130360C02581112AC0809161268FBF80E090E072
S113037026C01068FC01EF53FA4D008311832091CD
S1130380622630916326C20FD31F2296C093622641
S1130390D09363262091C02521502093C02521119C
S11303A003C0209161262FBF8D539A4D08C080E071
S11303B090E005C080E090E002C080E090E0DF9132
S11303C0CF911F910F9108952F923F924F925F9278
S11303D06F927F928F929F92AF92BF92CF92DF9251
S11303E0EF92FF920F931F93CF93DF93C1ECD5E26B
S11303F06F31710508F04EC18C179D0708F44DC18B
S1130400E5E2813E9E0708F04BC16B013C01009779
S113041021F4CB010E945C0150C18C0102501109EE
S11304202801F801E080F180442319F0FF200CF04A
S11304303AC15701E894B7F84601F2E08F0E911CD7
S1130440A814B90409F432C18091C02591E0980F31
S11304509093C025811104C08FB780936126F894CE
S113046080E090E00E943B0121EC421625E2520616
S113047089F4E1ECF5E220E030E060E070E080E057
S113048090E017C020813181C9019F77BF01E80F37
S1130490F91F08C0E1ECF5E220E030E060E070E034
S11304A080E090E0E017F10721F045E2E13EF40737
S11304B048F3D801AA0DBB1D45E2A13EB40738F4A8
S11304C02D903C901197A1015F77FD0104C0212C70
S11304D0312C40E050E0CA14DB04A0F47501EC18A0
S11304E0FD0882E0E816F10408F4C4C0E2E0EE1A64
S11304F0F1082401689457F833200CF452C0E40E38
S1130500F51E4FC033233CF06115710539F08A0D97
S11305109B1DDB0105C0D801C50102C0D801C5017E
S1130520332024F0EF2B11F0840F951F8C159D05BB
S113053008F45BC0AD014C0D5D1D4E5F5F4F415E25
S1130540554211F008F053C0EB0103C0970101C0FC
S113055097012601689457F842E0440E511C88150F
S1130560990538F08C199D097C01E2E0EE1AF10836
S113057002C0E12CF12C3323A4F0209791F0A501C3
S113058042505109B301CE0102960E94310CA501DB
S11305904150510960E070E0C30101970E943A0C98
S11305A08E01F2E0EF16F10418F44E0C5F1C08C043
S11305B0F201FF77E00FF11FE082F182E12CF12CD0
S11305C0F80140825182A814B90498F144C0E8802B
S11305D0F980C7019F77FF202CF0009771F08815F0
S11305E0990558F4C80FD91F03C0C50101C0C5013E
S11305F09E01F5E2C13EDF0750F3215E354260F40F
S1130600009709F0A3CF9E012C0D3D1D2E5F3F4F97
S1130610215E354208F49CCF8091C025815080939F
S1130620C025811145C0809161268FBF80E090E094
S113063044C0CA18DB08EC0CFD1C209162263091E2
S11306406326E20EF31EF2E0EF0EF11CE092622646
S1130650F09263260FC0CA18DB086091622670917D
S11306606326C60ED71E22E0C20ED11CC09262269B
S1130670D09263268091C02581508093C02581113A
S113068003C0809161268FBF01151105A1F0C80137
S1130690029613C080E090E010C080E090E00DC0AE
S11306A080E090E00AC080E090E007C0C30105C08C
S11306B080E090E002C080E090E0DF91CF911F9154
S11306C00F91FF90EF90DF90CF90BF90AF909F90ED
S11306D08F907F906F905F904F903F902F900895F0
S11306E00F931F93CF93DF9384E090E00E945C010B
S11306F0EC018AEA9AEA888399838A839B83E1ECF2
S1130700F5E282819381A481B581008111818A3AC5
S11307109A4AAA4ABA4A59F022E830E243E151E03F
S113072067E970E28EE493E20E942707FFCF063068
S1130730104859F020EB30E244E151E067E970E2FF
S11307408EE493E20E942707FFCF80916226909166
S11307506326069759F02AEC30E245E151E067E957
S113076070E28EE493E20E942707FFCF84E090E0DA
S11307700E945C012BEB3BEBFC0120833183228341
S113078033838091C9259091CA25A091CB25B0913E
S1130790CC258B3B9B4BAB4BBB4B59F024EE30E24F
S11307A04CE151E067E970E28EE493E20E9427078E
S11307B0FFCF80916226909163260C9759F029EF20
S11307C030E24DE151E067E970E28EE493E20E9489
S11307D02707FFCFCE010E9409018091C125909186
S11307E0C225069759F024E131E242E251E067E97B
S11307F070E28EE493E20E942707FFCF8091622685
S113080090916326069759F02AEC30E243E251E0D6
S113081067E970E28EE493E20E942707FFCF86E047
S113082090E00E945C0146E050E06CEC70E00E94B5
S11308303A0CC0E013C0EC2FF0E0E153FA4D808194
S11308408C3C59F020E231E249E251E067E970E280
S11308508EE493E20E942707FFCFCF5FC63058F3A0
S11308608091CD259091CE258830904859F025E48B
S113087031E24BE251E067E970E28EE493E20E94D8
S11308802707FFCF80916226909163260E9759F037
S11308902FE631E24CE251E067E970E28EE493E244
S11308A00E942707FFCF88E090E00E945C018C0142
S11308B048E050E06DED70E00E943A0CC0E013C0D7
S11308C0EC2FF0E0E952FA4D80818D3D59F02AE891
S11308D031E242E351E067E970E28EE493E20E9480
S11308E02707FFCFCF5FC83058F3809162269091DD
S11308F06326489759F02FEA31E243E351E067E970
S113090070E28EE493E20E942707FFCF41E06AE0A1
S113091070E0C8010E94E4018C014AE050E06DEDF2
S113092070E00E943A0C8091D5259091D6258C30A8
S1130930904859F02AEC31E24AE351E067E970E269
S11309408EE493E20E942707FFCFC0E013C0EC2F90
S1130950F0E0E952FA4D80818D3D59F02AE831E208
S11309604CE351E067E970E28EE493E20E942707CA
S1130970FFCFCF5FCA3058F38091622690916326EF
S11309804A9759F029EE31E24DE351E067E970E20C
S11309908EE493E20E942707FFCF41E06CE070E011
S11309A0C8010E94E401892B59F024E032E242E4B8
S11309B051E067E970E28EE493E20E942707FFCFDB
S11309C08091D5259091D6258C30904859F02AEC09
S11309D031E244E451E067E970E28EE493E20E947C
S11309E02707FFCF80916226909163264A9759F09A
S11309F029EE31E245E451E067E970E28EE493E2E6
S1130A000E942707FFCFDF91CF911F910F91089587
S1130A1089E090E0809362269093632680E2E0E68A
S1130A20F0E2A1ECB5E201900D928A95E1F741E084
S1130A306BE070E08DED95E20E94E401892B59F49E
S1130A4022E132E243E651E067E970E28CE393E2AB
S1130A500E942707FFCF40E250E061EC75E280E49A
S1130A6090E20E94240C892B59F020E232E244E601
S1130A7051E067E970E28CE393E20E942707FFCF1D
S1130A808091622690916326429759F027E432E2DE
S1130A9045E651E067E970E28CE393E20E942707A0
S1130AA0FFCF87E090E0809362269093632680E2F4
S1130AB0E0E6F0E2A1ECB5E201900D928A95E1F74F
S1130AC01092E02510925F2041E06BE070E08DED24
S1130AD095E20E94E401892B59F422E132E24CE6CA
S1130AE051E067E970E28CE393E20E942707FFCFAD
S1130AF040E250E061EC75E280E490E20E94240C54
S1130B00892B59F020E232E24DE651E067E970E2C8
S1130B108CE393E20E942707FFCF80916226909195
S1130B206326409759F022E632E24EE651E067E947
S1130B3070E28CE393E20E942707FFCF80E8809362
S1130B405F2080E2E0E4F0E2A1ECB5E201900D92D6
S1130B508A95E1F782E190E0809362269093632680
S1130B6041E064E170E083EC95E20E94E40180914D
S1130B706226909163264C9759F02DE732E245E7BF
S1130B8051E067E970E28CE393E20E942707FFCF0C
S1130B9080E2E0E4F0E2A1ECB5E201900D928A95E6
S1130BA0E1F782E190E0809362269093632641E02E
S1130BB066E070E083EC95E20E94E40140E250E0DC
S1130BC061EC75E280E290E20E94240C892B59F0DA
S1130BD02AE932E24BE751E067E970E28CE393E201
S1130BE00E942707FFCF80916226909163260D977C
S1130BF059F021EC32E24CE751E067E970E28CE312
S1130C0093E20E942707FFCF80E2E0E4F0E2A1EC48
S1130C10B5E201900D928A95E1F782E190E080932C
S1130C2062269093632641E060E070E083EC95E2F5
S1130C300E94E40140E250E061EC75E280E090E261
S1130C400E94240C892B59F02EED32E242E851E047
S1130C5067E970E28CE393E20E942707FFCF80915B
S1130C60622690916326079759F025E033E243E822
S1130C7051E067E970E28CE393E20E942707FFCF1B
S1130C8080E2E0E4F0E2A1ECB5E201900D928A95F5
S1130C90E1F782E190E0809362269093632641E03D
S1130CA06CE070E083EC95E20E94E40140E250E0E5
S1130CB061EC75E280E490E20E94240C892B59F0E7
S1130CC020E232E249E851E067E970E28CE393E222
S1130CD00E942707FFCF8091622690916326429756
S1130CE059F02FE133E24AE851E067E970E28CE31E
S1130CF093E20E942707FFCF0895E0E0F8E08FE831
S1130D0092E086A397A397E0908381E08683E0E452
S1130D10F8E026E636E026A337A390838683089579
S1130D200F920FB6F8940F9208B60F9209B60F926D
S1130D300AB60F920BB60F921F9211242F923F9274
S1130D404F925F926F927F928F929F92AF92BF92D7
S1130D50CF92DF92EF92FF920F931F932F933F93C3
S1130D604F935F936F937F938F939F93AF93BF93AF
S1130D70CF93DF93EF93FF93A0916626B0916726FC
S1130D800DB60D920EB60D92109220081092210805
S1130D900E944908A0916626B09167260D901C9088
S1130DA00DBE1EBEFF91EF91DF91CF91BF91AF9128
S1130DB09F918F917F916F915F914F913F912F916F
S1130DC01F910F91FF90EF90DF90CF90BF90AF9065
S1130DD09F908F907F906F905F904F903F902F9057
S1130DE01F900F900BBE0F900ABE0F9009BE0F907C
S1130DF008BE0F900FBE0F9018951F920F920FB65A
S1130E000F9211240BB60F922F933F934F935F933E
S1130E106F937F938F939F93AF93BF93EF93FF93BE
S1130E200E946E0B0E94B60BFF91EF91BF91AF91A0
S1130E309F918F917F916F915F914F913F912F91EE
S1130E400F900BBE0F900FBE0F901F901895E0E00F
S1130E50F0E001C03196DB01AE0FBF1F8C918E52C2
S1130E608230C0F33F932F935F934F93BF93AF931D
S1130E708FE593E29F938F9381EE95E29F938F93F7
S1130E800E94410C81EE95E20E94F8090E949308A9
S1130E908DB79EB70A968DBF9EBF80E0089584E605
S1130EA096E280936626909367260895CF93DF9306
S1130EB0EC018D818F938C818F9382EF93E29F93CA
S1130EC08F9381EE95E29F938F930E94410C81EE64
S1130ED095E20E94F809CE010296809366269093CB
S1130EE06726C0938826D093892681E0898746E9BE
S1130EF050E060E070E0CE010C960E94F10A0F9081
S1130F000F900F900F900F900F90DF91CF91089555
S1130F100F931F93CF93DF93A0918826B0918926D6
S1130F201097C9F016969C911697915010C084E0C2
S1130F309802F0011124E859F94D0190F081E02D57
S1130F400190F081E02D2185223039F091509923D0
S1130F5074F780E003C080E001C081E0109771F075
S1130F6081110CC019968C911997833039F0CD01F9
S1130F700C960E94270B882309F461C0E09188260F
S1130F80F0918926309751F1C681D0E0CC0FDD1F56
S1130F90CC0FDD1FC859D94D8185833051F083E0D2
S1130FA0818746E950E060E070E0CF010C960E9432
S1130FB0F10A6091882670918926CE010E94050964
S1130FC08C0180918826909189260C960E94440B6E
S1130FD0F80164837583CE010E94980890E016C0DE
S1130FE084E09802F0011124E859F94D0190F08150
S1130FF0E02D0190F081E02D309739F08185823029
S113100021F4CF010E9456071AC09F5F983044F321
S113101090E013C084E09802F0011124E859F94DDE
S11310200190F081E02D208131812115310521F0DD
S1131030C9010E94560703C09F5F98305CF3DF919B
S1131040CF911F910F910895E0918826F091892600
S1131050228133818081918128173907C8F48581E1
S11310608F9384818F9389E094E29F938F9381EE91
S113107095E29F938F930E94410C81EE95E20E942A
S1131080F8090F900F900F900F900F900F90FFCFD3
S11310900895CF92DF92EF92FF920F931F93CF9315
S11310A0DF9380918A268130A9F50E94240800E00C
S11310B02DC0C02ED12CF601EE0FFF1FEE0FFF1F27
S11310C0E859F94DC081D18110E015C0E880F9805C
S11310D0F7018185833059F4C7010C960E94440BB3
S11310E06C837D83672B19F482E0F70181870A8082
S11310F0DB81C02D1F5FF601EE0FFF1FEE0FFF1FF8
S1131100E859F94D8281181708F30F5F083088F207
S11311100E948807DF91CF911F910F91FF90EF906C
S1131120DF90CF90089510928A260895FFCF0895F6
S11311300F931F93CF93DF93DC0112962C91129798
S1131140223008F45DC00D90BC91A02D60E070E0E9
S113115051C004811581C281D3812C813D81201726
S1131160310780F541155105C1F4DC010D911C9145
S11311701197CD93DC9311970280F381E02D2281A6
S11311803381E8012A833B83ED91FC91119702831B
S113119013830D90BC91A02D16C01296CD93DC93B1
S11311A01397C281D3812A813B8122833383129690
S11311B0CD91DC911397EA83FB8312960D90BC9139
S11311C0A02D01C0DF011296ED91FC9113974F5FA2
S11311D05F4F03C0FD0140E050E0EC012A8130E0A4
S11311E021503109421753070CF4B3CFA881B981B8
S11311F06F5F7F4FFC01228130E06217730754F365
S1131200DF91CF911F910F910895DC01ED91FC9135
S113121003C00280F381E02D309729F08081918111
S113122086179707B1F7CF01089581E08093A20054
S113123078940895EF920F93E12C08E120E040E0C8
S113124060E480E296E00E94B909E0E2F6E080E41E
S1131250808384818064848300E020E040E068E04F
S113126080E496E00E94B90988E08093400608E192
S113127020E040E064E080EA96E00E94B909E0EAF8
S1131280F6E084E080838481846084830F91EF900E
S11312900895E0E5F0E080818660808360E080E08E
S11312A00E9482098091510082FFFCCF80915100FD
S11312B081FFFCCF81E00E94880960E082E00E9407
S11312C09D0908950E941A090E9449090E947D06F9
S11312D00E9415090E94D20908950F93CF93DF93BA
S11312E01F92CDB7DEB72FB72983F8941BBEFC013C
S11312F008ED04BF608389818FBF0F90DF91CF9188
S11313000F910895682B81E490E00E946D0908957F
S11313100F931F93CF93C82F00E410E0F80160816E
S1131320687F682B80E490E00E946D09F801808159
S11313308C23CF911F910F91089520915600382F3F
S1131340982F90959223611101C030E0932B9093D4
S11313505600813031F4E8E6F0E0808181608083DA
S11313600895823029F4E0E6F0E080818160808392
S11313700895EF920F93FC010E29442311F080E8A5
S113138001C080E0082B222311F080E401C080E03A
S1131390082B9FB7F8946093B000008B9FBF0F9108
S11313A0EF900895E0E4F6E088E0818384E08283AE
S11313B041E060EA78E08BE896E20E946C0AE091F2
S11313C08B26F0918C2683E0858383818F7C8061DA
S11313D08383A0EAB8E08FEC16968C931697179641
S11313E01C928481806184838481886084830895CD
S11313F00F931F93CF93DF938C01C0E0D0E009C01B
S1131400F801EC0FFD1F60818BE896E20E94860ACA
S11314102196F80101900020E9F73197E01BF10BC8
S1131420CE17DF0768F3DF91CF911F910F910895D5
S11314301F920F920FB60F9211240BB60F922F9397
S11314403F934F935F936F937F938F939F93AF9348
S1131450BF93EF93FF938BE896E20E94A60AFF9155
S1131460EF91BF91AF919F918F917F916F915F9118
S11314704F913F912F910F900BBE0F900FBE0F9085
S11314801F9018951F920F920FB60F9211240BB64E
S11314900F922F933F934F935F936F937F938F9309
S11314A09F93AF93BF93EF93FF938BE896E20E94D1
S11314B0C10AFF91EF91BF91AF919F918F917F915D
S11314C06F915F914F913F912F910F900BBE0F90B1
S11314D00FBE0F901F901895FC01608371834283A7
S11314E0EC5FFD4F10823197108233961082319752
S11314F010820895FC01EB5FFD4F20812F5F319630
S1131500908181E0291301C080E008951F93CF9357
S1131510DF93EC01162F0E947A0A882399F0DE01EA
S1131520AB5FBD4F9C91FE01E90FF11DED5FFE4FD6
S113153010839F5F9C93E881F98193812A819C7F2A
S1131540922B9383DF91CF911F910895FC01ED5F5E
S1131550FD4F20812F5F31963081DC01ED91FC91AC
S113156011974081231759F0FC01ED5FFD4F308145
S1131570A30FB11D13964C93208381E0089580E05E
S11315800895CF93DF93FC01EA5FFD4F30813197DB
S11315902081321307C0DC01ED91FC9183818C7FA3
S11315A0838311C0FC01EA5FFD4F2081DC01A20F9F
S11315B0B11DAD5FBE4F2C91EC01A881B9812C9374
S11315C080818F5F8083DF91CF9108950E946209AB
S11315D00E944F070E94F40B0E94960880E090E05E
S11315E00895FC014283538340919228509193289B
S11315F060919428709195284083518308950F93A6
S11316001F93FC018091922890919328A091942893
S1131610B09195280081118120E030E08017910776
S1131620A207B30738F0BC01CD01601B710B820B1C
S1131630930B0AC0801B910BA20BB30BBC01CD0111
S11316406453734F8F4F9F4F1F910F910895CF9203
S1131650DF92EF92FF92CF93DF93EC010E94FF0A97
S11316604A815B816A01E12CF12C21E06C157D0536
S11316708E059F0508F420E0822FDF91CF91FF9023
S1131680EF90DF90CF900895CF92DF92EF92FF9288
S11316900F931F93CF93DF93EC010E94FF0A2A81DB
S11316A03B81890120E030E06017710782079307CE
S11316B048F468017901C61AD70AE80AF90AC70189
S11316C0B60103C060E070E0CB01DF91CF911F91C0
S11316D00F91FF90EF90DF90CF900895809196281E
S11316E090919728A0919828B09199280196A11DCE
S11316F0B11D8093962890939728A0939828B0932F
S113170099288C3C9C40A105B10540F01092962884
S11317101092972810929828109299282091962830
S1131720309197284091982850919928A2E3B0E0ED
S11317300E940A0C609392287093932880939428B3
S11317409093952808950E9470030E940805809143
S11317509A2890919B28019680939A2890939B288D
S113176008958CE294E20E94F809089580919C28DF
S113177090919D28019680939C2890939D28E0E267
S1131780F6E0948180E489278483089585E895E2CE
S11317900E94F80980919A2890919B2881309105A4
S11317A019F02BE735E202C020E835E23F932F938E
S11317B021E030E0281B390B3F932F939F938F93A5
S11317C088E995E29F938F9381EE95E29F938F939F
S11317D00E94410C81EE95E20E94F8098DB79EB7F4
S11317E00A968DBF9EBF0895CF930E94B10BC0E0AF
S11317F00BC0EC2FF0E0EE0FFF1FE058FF4D0190FF
S1131800F081E02D1995CF5FCC2399F30E94C60B8C
S1131810CF9108950E94150CA59F900DB49F900D33
S1131820A49F800D911D11240895A29FB001B39F20
S1131830C001A39F700D811D1124911DB29F700DD5
S1131840811D1124911D0895FB01DC0104C08D91BB
S11318500190801921F441505040C8F7881B990B1E
S11318600895FB01DC0102C001900D9241505040EB
S1131870D8F70895DC0101C06D9341505040E0F762
S113188008950F931F93CF93DF93CDB7DEB72E97B1
S1131890CDBFDEBF0E891F8986E08C8309831A833E
S11318A08FEF9FE78D839E83AE01465E5F4F688D09
S11318B0798DCE0101960E946A0CEF81F885E00FC4
S11318C0F11F10822E96CDBFDEBFDF91CF911F9105
S11318D00F9108952F923F924F925F926F927F9251
S11318E08F929F92AF92BF92CF92DF92EF92FF922C
S11318F00F931F93CF93DF93CDB7DEB72B97CDBF55
S1131900DEBF6C017B018A01FC0116821782838190
S113191081FFCCC1CE0101963C01F6019381F70110
S113192093FD859193FF81917F01882309F4BAC1C6
S1131930853239F493FD859193FF81917F0185323E
S113194029F4B60190E00E94840EE7CF912C212C5B
S1131950312CFFE1F315D8F08B3279F038F4803272
S113196079F08332A1F4232D20611DC08D3261F002
S1131970803369F4232D216016C0832D8260382EB4
S1131980E32DE4603E2E2AC0F32DF8601DC037FC21
S11319902DC020ED280F2A3040F08E32B9F436FCE9
S11319A081C1232D2064322E19C036FE06C08AE080
S11319B0989E200D1124922E11C0EAE02E9E200D37
S11319C01124222EF32DF0623F2E08C08C3621F410
S11319D0832D8068382E02C0883641F4F70193FDC8
S11319E0859193FF81917F018111B3CF982F9F7DC2
S11319F09554933028F40C5F1F4F9FE399830DC0D7
S1131A00833631F0833771F0833509F059C021C032
S1131A10F801808189830E5F1F4F88248394912C61
S1131A20530113C02801F2E04F0E511CF801A080AD
S1131A30B18036FE03C0692D70E002C06FEF7FEF06
S1131A40C5010E94790E4C018201F32DFF773F2ED0
S1131A5016C0280122E0420E511CF801A080B1807A
S1131A6036FE03C0692D70E002C06FEF7FEFC50141
S1131A700E946E0E4C01F32DF0683F2E820133FC60
S1131A801BC0822D90E088169906B0F4B60180E25E
S1131A9090E00E94840E2A94F4CFF50137FC8591DE
S1131AA037FE81915F01B60190E00E94840E2110FF
S1131AB02A9421E0821A91088114910471F7E8C0F4
S1131AC0843611F0893641F5F80137FE07C060818C
S1131AD07181828193810C5F1F4F08C06081718185
S1131AE0072E000C880B990B0E5F1F4FF32DFF760A
S1131AF03F2E97FF09C090958095709561957F4F13
S1131B008F4F9F4FF0683F2E2AE030E0A3010E94E0
S1131B10C00E882E861845C0853731F4232D2F7EBC
S1131B20B22E2AE030E025C0932D997FB92E8F364E
S1131B30C1F018F4883579F0B5C0803719F08837CA
S1131B4021F0B0C0E92FE061BE2EB4FE0DC0FB2D24
S1131B50F460BF2E09C034FE0AC0292F2660B22EBD
S1131B6006C028E030E005C020E130E002C020E1FA
S1131B7032E0F801B7FE07C06081718182819381F0
S1131B800C5F1F4F06C06081718180E090E00E5FA2
S1131B901F4FA3010E94C00E882E8618FB2DFF77CD
S1131BA03F2E36FE0DC0232D2E7FA22E891458F40D
S1131BB034FE0BC032FC09C0832D8E7EA82E05C0D6
S1131BC0B82CA32C03C0B82C01C0B92CA4FE0FC0A0
S1131BD0FE01E80DF11D8081803321F49A2D997E58
S1131BE0A92E09C0A2FE06C0B394B39404C08A2DE2
S1131BF0867809F0B394A3FC11C0A0FE06C0B21409
S1131C0088F4280C922C9B180EC0B21460F4B60110
S1131C1080E290E00E94840EB394F7CFB21418F4DB
S1131C202B1802C0982C212CA4FE10C0B60180E30E
S1131C3090E00E94840EA2FE17C0A1FC03C088E7B6
S1131C4090E002C088E590E0B6010CC08A2D867849
S1131C5059F0A1FE02C08BE201C080E2A7FC8DE234
S1131C60B60190E00E94840E891438F4B60180E332
S1131C7090E00E94840E9A94F7CF8A94F301E80DC1
S1131C80F11D8081B60190E00E94840E8110F5CF91
S1131C90222009F442CEB60180E290E00E94840E34
S1131CA02A94F6CFF6018681978102C08FEF9FEFC9
S1131CB02B96CDBFDEBFDF91CF911F910F91FF9087
S1131CC0EF90DF90CF90BF90AF909F908F907F90D8
S1131CD06F905F904F903F902F900895FC01059076
S1131CE0615070400110D8F7809590958E0F9F1F1A
S1131CF00895FC016150704001900110D8F780955F
S1131D0090958E0F9F1F08950F931F93CF93DF938A
S1131D10FB01238121FD03C08FEF9FEF2CC022FF25
S1131D2016C046815781248135814217530744F4F4
S1131D30A081B1819D012F5F3F4F208331838C931C
S1131D40268137812F5F3F4F2683378314C08B0151
S1131D50EC01FB010084F185E02D1995892BE1F656
S1131D60D80116968D919C911797019616968D938E
S1131D709C931797CE01DF91CF911F910F910895F6
S1131D80FA01AA27283051F1203181F1E8946F93A8
S1131D906E7F6E5F7F4F8F4F9F4FAF4FB1E03ED04E
S1131DA0B4E03CD0670F781F891F9A1FA11D680FEC
S1131DB0791F8A1F911DA11D6A0F711D811D911D1F
S1131DC0A11D20D009F468943F912AE0269F112494
S1131DD03019305D3193DEF6CF010895462F4770F8
S1131DE0405D4193B3E00FD0C9F7F6CF462F4F7053
S1131DF0405D4A3318F0495D31FD4052419302D0B1
S1131E00A9F7EACFB4E0A695979587957795679556
S1131E10BA95C9F700976105710508959B01AC0156
S1131E200A2E06945795479537952795BA95C9F77D
S1131E30620F731F841F951FA01D0895F894FFCF90
S1131E40028015000000000000000000000A0000ED
S1131E50000000000000000380CC040000000280A9
S1131E600880AAAA000000000F000000000A000079
S1131E70000000000000000380CC04000000028089
S1131E800D80AAAA0000000000000000000A000063
S1131E90000000000000000380CC04000000028069
S1131EA01700000000000000000000000000000017
S1131EB0000000000000000380CC0480AAAA028075
S1131EC0A30B61637475616C203D3D2030786161C2
S1131ED0616161616161002E2E2F617672786D659A
S1131EE067612F6D656D5F6D616E6167652E63005F
S1131EF0686561646572203D3D202836207C204958
S1131F004E5F5553455F626D2900746F74616C4177
S1131F106C6C6F63617465644D656D6F7279203D9F
S1131F203D20360061637475616C203D3D2030783E
S1131F30626262626262626200746F74616C416CBC
S1131F406C6F63617465644D656D6F7279203D3D9E
S1131F5020313200686561646572203D3D203600A1
S1131F606D656D6F72795B69202B203132202B20D7
S1131F704845414445525F53495A455D203D3D2003
S1131F803078636300686561646572203D3D202894
S1131F902836202B204845414445525F53495A4531
S1131FA029207C20494E5F5553455F626D2900749A
S1131FB06F74616C416C6C6F63617465644D656DC5
S1131FC06F7279203D3D203134006D656D6F7279FB
S1131FD05B69202B203230202B2048454144455258
S1131FE05F53495A455D203D3D2030786464007458
S1131FF06F74616C416C6C6F63617465644D656D85
S11320006F7279203D3D20323400686561646572E9
S1132010203D3D2028307830303063207C20494EEC
S11320205F5553455F626D2900746F74616C416C38
S11320306C6F63617465644D656D6F7279203D3DAD
S1132040203236006461746134203D3D204E554C8D
S11320504C00646174613120213D204E554C4C008C
S11320606D656D636D70286D656D332C206D656DC8
S11320706F72792C204D454D4F52595F53495A4543
S113208029203D3D203000746F74616C416C6C6F8D
S113209063617465644D656D6F7279203D3D2031D7
S11320A03800746F74616C416C6C6F636174656447
S11320B04D656D6F7279203D3D20313600746F742B
S11320C0616C416C6C6F63617465644D656D6F72B6
S11320D079203D3D2030783163006D656D636D700E
S11320E0286D656D342C206D656D6F72792C204DD3
S11320F0454D4F52595F53495A4529203D3D2030A3
S113210000746F74616C416C6C6F63617465644DD1
S1132110656D6F7279203D3D2030783064006D65C7
S11321206D636D70286D656D352C206D656D6F72F6
S1132130792C204D454D4F52595F53495A4529201A
S11321403D3D203000746F74616C416C6C6F636151
S11321507465644D656D6F7279203D3D2037007460
S11321606F74616C416C6C6F63617465644D656D13
S11321706F7279203D3D2030783132006D656D5F9E
S11321806D616E616765725F7465737432006D654D
S11321906D5F6D616E616765725F74657374004134
S11321A07373657274206661696C757265210A0DBA
S11321B046696C653A2025730A0D4C696E653A20B0
S11321C025640A0D4578703A2025730A0D00707253
S11321D0696F72697479203C204D41585F505249AF
S11321E04F52495459002E2E2F2E2F6B65726E6557
S11321F06C2E6300737461636B53697A65203E20AF
S11322003435006320213D204E554C4C00632D3E57
S1132210737461636B20213D204E554C4C00632D3B
S11322203E7461736B4E616D6520213D204E554CAB
S11322304C00537769746368696E6720746F207407
S113224061736B2025730A0D00537461636B206FF7
S1132250766572666C6F7720646574656374656413
S113226020696E207461736B202573210A0D000AA6
S11322700D5461736B2063617567687420696E2007
S11322806B65726E656C2063617463682066756E3D
S11322906374696F6E0A0D00492061696E7420745D
S11322A0686520736861727065737420746F6F6CF5
S11322B020696E20746865207368656400536865DE
S11322C020776173206C6F6F6B696E67206B696E2A
S11322D064206F662064756D622077697468206875
S11322E065722066696E67657220616E6420686538
S11322F072207468756D6200496E2074686520737D
S113230068617065206F6620616E204C206F6E20BE
S113231068657220666F72656865616400546573F0
S113232074205461736B203200536F6D65626F6467
S113233079206F6E636520746F6C64206D65207402
S1132340686520776F726C642077617320676F6EA5
S11323506E6120726F6C6C206D650054657374201F
S11323605461736B002E2E2F2E2F756E6974746555
S113237073742E63004C6F77205072696F726974A6
S113238079205461736B00506F7374205461736BC4
S11323900074696D65725F6861735F6578706972F6
S11323A06564282674696D657229007469636B5FBE
S11323B0636F756E74203D3D2035004661696C0085
S11323C050617373000A0D54657374732066696EEB
S11323D069736865640D0A005061737365643A201B
S11323E025640A0D4661696C65643A2025640A0D0A
S11323F00A0D526573756C743A2025730A0D00003A
S9030000FC
