S00C000075544F532E73726563AD
S11300000C94F4000C9415010C9415010C94150136
S11300100C9415010C9415010C9415010C94150104
S11300200C9415010C9415010C9415010C941501F4
S11300300C9415010C9415010C946F030C94150188
S11300400C9415010C9415010C9415010C941501D4
S11300500C94DC030C9415010C9415010C941501FB
S11300600C9415010C94B1090C94DB090C94150142
S11300700C9415010C9415010C9415010C941501A4
S11300800C9415010C9415010C9415010C94150194
S11300900C9415010C9415010C9415010C94150184
S11300A00C9415010C9415010C9415010C94150174
S11300B00C9415010C9415010C9415010C94150164
S11300C00C9415010C9415010C9415010C94150154
S11300D00C9415010C9415010C9415010C94150144
S11300E00C9415010C9415010C9415010C94150134
S11300F00C9415010C9415010C9415010C94150124
S11301000C9415010C9415010C9415010C94150113
S11301100C9415010C9415010C9415010C94150103
S11301200C9415010C9415010C9415010C941501F3
S11301300C9415010C9415010C9415010C941501E3
S11301400C9415010C9415010C9415010C941501D3
S11301500C9415010C9415010C9415010C941501C3
S11301600C9415010C9415010C9415010C941501B3
S11301700C9415010C9415010C9415010C941501A3
S11301800C9415010C9415010C9415010C94150193
S11301900C9415010C9415010C9415010C94150183
S11301A00C9415010C9415010C9415010C94150173
S11301B00C9415010C9415010C9415010C94150163
S11301C00C9415010C9415010C94F30B0C94110C64
S11301D00C945D0B0C943C0B0C942F0C0C94BE0BE8
S11301E00C944D0C0C94180711241FBECFEFCDBFF7
S11301F0DFE5DEBF00E00CBF12E2A0E0B0E2E6E122
S1130200F2E200E00BBF02C007900D92A43FB107D9
S1130210D9F725E3A4EFB2E201C01D92AA3BB207CD
S1130220E1F70E947F0A0C9409110C940000BC01B0
S113023020E030E090E014C0FB01EB50FD4DDF0105
S1130240A20FB31F4D915C914115510589F0CA016C
S113025088279078911104C0240F351F208331839F
S1130260911106C0CB01820F931F8115904120F399
S113027008950F931F93CF93DF938F3F2FE092073F
S113028008F080C0409176335091773320E030E11C
S1130290241B350B8C010E5F1F4F2017310708F408
S11302A074C02091F42231E0320F3093F4222111F2
S11302B004C02FB720937533F894EC0180E090E0EC
S11302C00E94170120E030E080E090E011C0FC01C2
S11302D0EB50FD4D408151819A013F77552334F015
S11302E02115310549F02017310730F4820F931F8F
S11302F0811540E1940758F3811540E1940748F4CF
S1130300232B39F040E0BE018B509D4D0E94CF015C
S113031041C0811520E1920768F08091F422815058
S11303208093F422811134C0809175338FBF80E0B3
S113033090E030C01068FC01EB50FD4D0083118348
S11303402091763330917733C20FD31F2296C09316
S11303507633D093773320917833309179332F5F8C
S11303603F4F20937833309379332091F4222150F6
S11303702093F422211103C0209175332FBF89509B
S11303809D4D08C080E090E005C080E090E002C090
S113039080E090E0DF91CF911F910F9108952F920B
S11303A03F924F925F926F927F928F929F92AF9201
S11303B0BF92CF92DF92EF92FF920F931F93CF934E
S11303C0DF93C5EFD2E26F3F2FE0720708F04EC112
S11303D08C179D0708F44DC1F2E3853F9F0708F091
S11303E04BC16B013C01009721F4CB010E94390100
S11303F050C18C01025011092801F801E080F180FC
S1130400442319F0FF200CF03AC15701E894B7F8DF
S11304104601F2E08F0E911CA814B90409F432C10C
S11304208091F42291E0980F9093F422811104C0FA
S11304308FB780937533F89480E090E00E941701A1
S113044025EF421622E2520689F4E5EFF2E220E0BB
S113045030E060E070E080E090E017C020813181FE
S1130460C9019F77BF01E80FF91F08C0E5EFF2E269
S113047020E030E060E070E080E090E0E017F10719
S113048021F042E3E53FF40748F3D801AA0DBB1D70
S113049042E3A53FB40738F42D903C901197A10195
S11304A05F77FD0104C0212C312C40E050E0CA14D8
S11304B0DB04A0F47501EC18FD0882E0E816F104F1
S11304C008F4C4C0E2E0EE1AF1082401689457F875
S11304D033200CF452C0E40EF51E4FC033233CF01D
S11304E06115710539F08A0D9B1DDB0105C0D8012A
S11304F0C50102C0D801C501332024F0EF2B11F04F
S1130500840F951F8C159D0508F45BC0AD014C0D3F
S11305105D1D4E5F5F4F455F524311F008F053C0BD
S1130520EB0103C0970101C097012601689457F8B5
S113053042E0440E511C8815990538F08C199D0928
S11305407C01E2E0EE1AF10802C0E12CF12C332325
S1130550A4F0209791F0A50142505109B301CE01B6
S113056002960E94150EA5014150510960E070E009
S1130570C30101970E941E0E8E01F2E0EF16F104F2
S113058018F44E0C5F1C08C0F201FF77E00FF11F56
S1130590E082F182E12CF12CF80140825182A8140E
S11305A0B90498F144C0E880F980C7019F77FF201F
S11305B02CF0009771F08815990558F4C80FD91FCD
S11305C003C0C50101C0C5019E01F2E3C53FDF07B9
S11305D050F3255F324360F4009709F0A3CF9E01E6
S11305E02C0D3D1D2E5F3F4F255F324308F49CCFF9
S11305F08091F42281508093F422811145C080912E
S113060075338FBF80E090E044C0CA18DB08EC0C5F
S1130610FD1C2091763330917733E20EF31EF2E025
S1130620EF0EF11CE0927633F09277330FC0CA18C4
S1130630DB086091763370917733C60ED71E22E0C3
S1130640C20ED11CC0927633D09277338091F422BB
S113065081508093F422811103C0809175338FBF40
S113066001151105A1F0C801029613C080E090E0C5
S113067010C080E090E00DC080E090E00AC080E00F
S113068090E007C0C30105C080E090E002C080E0B4
S113069090E0DF91CF911F910F91FF90EF90DF9049
S11306A0CF90BF90AF909F908F907F906F905F900E
S11306B04F903F902F900895E0E0F8E08FE892E0AB
S11306C086A397A397E0908381E08683E0E4F8E033
S11306D026E636E026A337A39083868308950F92F7
S11306E00FB6F8940F9208B60F9209B60F920AB695
S11306F00F920BB60F921F9211242F923F924F929A
S11307005F926F927F928F929F92AF92BF92CF929D
S1130710DF92EF92FF920F931F932F933F934F9388
S11307205F936F937F938F939F93AF93BF93CF9375
S1130730DF93EF93FF93A0917C33B0917D330DB69B
S11307400D920EB60D9210922008109221080E946C
S1130750B006A0917C33B0917D330D901C900DBEFA
S11307601EBEFF91EF91DF91CF91BF91AF919F9109
S11307708F917F916F915F914F913F912F911F9135
S11307800F91FF90EF90DF90CF90BF90AF909F902C
S11307908F907F906F905F904F903F902F901F901D
S11307A00F900BBE0F900ABE0F9009BE0F9008BEAB
S11307B00F900FBE0F9018951F920F920FB60F92C5
S11307C011240BB60F922F933F934F935F936F9324
S11307D07F938F939F93AF93BF93EF93FF930E9465
S11307E0070B0E94860CFF91EF91BF91AF919F91EF
S11307F08F917F916F915F914F913F912F910F90C6
S11308000BBE0F900FBE0F901F901895E0E0F0E024
S113081001C03196DB01AE0FBF1F8C918E52823026
S1130820C0F33F932F935F934F93BF93AF938CE0A9
S113083090E29F938F9385EF92E39F938F930E940F
S11308402C0E85EF92E30E9491090E9482078DB7D6
S11308509EB70A968DBF9EBF80E008958AE793E312
S113086080937C3390937D3308950F931F93CF939C
S1130870DF9300D01F92CDB7DEB7DC0148E157E02B
S1130880052E000C660B770B49835A836B837C839C
S113089020E030E080E090E022C04D915C9111971F
S11308A01796ED91FC911897E21BF30B3197E40F27
S11308B0F51F49815A816B817C818C01000F111FC6
S11308C0000F111F000F111F04C0769567955795EF
S11308D047950A95D2F7408301962F5F3F4F8430A6
S11308E09105D8F21A964D915C911B97052E000C38
S11308F0660B770B49835A836B837C8380E090E09B
S113090021C04D915C9111971796ED91FC91189728
S1130910E21BF30BE40FF51F49815A816B817C8143
S11309208C01000F111F000F111F000F111F04C0B5
S113093076956795579547950A95D2F74083019622
S11309402F5F3F4F84309105E0F28D919C91119778
S11309501796ED91FC911897E21BF30BE80FF91F22
S113096080E880834D915C91119717968D919C91AD
S11309701897821B930B8497840F951F12968D935F
S11309809C9313972496CDBFDEBFDF91CF911F9127
S11309900F910895AF92BF92DF92EF92FF920F935F
S11309A01F93CF93DF93EC01D62E7A01890187E060
S11309B0861758F42BE330E24DE250E063E570E231
S11309C085E091E20E940604FFCFE114F10459F49A
S11309D02EE830E24EE250E063E570E285E091E219
S11309E00E940604FFCF0E32110558F421E630E2CE
S11309F04FE250E063E570E285E091E20E94060474
S1130A00FFCF20E01CC0E22FF0E0EE0FFF1FEE0F3F
S1130A10FF1FE258FC4C0190F081E02D0DC0A08135
S1130A20B1811A968D919C911B978C179D0709F49F
S1130A306EC00280F381E02D309789F72F5F283054
S1130A4010F382E190E00E9439015C01892B59F492
S1130A5020E730E24CE350E063E570E285E091E2A8
S1130A600E940604FFCFC8010E943901F50180836A
S1130A709183892B59F42AE730E24EE350E063E591
S1130A8070E285E091E20E940604FFCFF701019035
S1130A900020E9F73197CF018E199F0901960E9432
S1130AA03901F50184839583892B59F42BE830E2CD
S1130AB041E450E063E570E285E091E20E940604BF
S1130AC0FFCFF5010783108780819181080F191FDB
S1130AD0008B118BD682C287D38782E08187B701CE
S1130AE0848195810E94250EC5010E9435048D2DB7
S1130AF090E0880F991F880F991F40E050E0B501DE
S1130B0082589C4C0E9487078A2D9B2D02C080E04E
S1130B1090E0DF91CF911F910F91FF90EF90DF90C4
S1130B20BF90AF900895CF93DF93EC018E8190E056
S1130B30880F991F880F991FBE0182589C4C0E94F0
S1130B400108888199810E948C0D8C819D810E946D
S1130B508C0DCE010E948C0DDF91CF910895CF931F
S1130B60DF93EC018D818F938C818F938FE990E2D9
S1130B709F938F9385EF92E39F938F930E942C0E04
S1130B8085EF92E30E949109CE01029680937C3313
S1130B9090937D33C0939E33D0939F3381E08987B4
S1130BA046E950E060E070E0CE010C960E948A0AAB
S1130BB00F900F900F900F900F900F90DF91CF91A7
S1130BC008950F931F93CF93DF93A0919E33B09119
S1130BD09F331097C9F016969C911697915010C0A8
S1130BE084E09802F0011124E258FC4C0190F08159
S1130BF0E02D0190F081E02D2185223039F09150D3
S1130C00992374F780E003C080E001C081E010976D
S1130C1071F081110CC019968C911997833039F0B9
S1130C20CD010C960E94C00A882309F461C0E091AA
S1130C309E33F0919F33309751F1C681D0E0CC0FB1
S1130C40DD1FCC0FDD1FC258DC4C8185833051F091
S1130C5083E0818746E950E060E070E0CF010C96C4
S1130C600E948A0A60919E3370919F33CE010E9444
S1130C709E088C0180919E3390919F330C960E9424
S1130C80DD0AF80164837583CE010E94310890E087
S1130C9016C084E09802F0011124E258FC4C019043
S1130CA0F081E02D0190F081E02D309739F08185BD
S1130CB0823021F4CF010E94AF051AC09F5F9830A3
S1130CC044F390E013C084E09802F0011124E25848
S1130CD0FC4C0190F081E02D2081318121153105FA
S1130CE021F0C9010E94AF0503C09F5F98305CF3F7
S1130CF0DF91CF911F910F910895AC0180919E33A4
S1130D0090919F3323E0FC01218760E070E00C9612
S1130D100E948A0A0895E0919E33F0919F332281C4
S1130D2033818081918128173907C8F485818F9395
S1130D3084818F9386EB90E29F938F9385EF92E368
S1130D409F938F930E942C0E85EF92E30E9491094A
S1130D500F900F900F900F900F900F90FFCF08956A
S1130D60CF92DF92EF92FF920F931F93CF93DF9373
S1130D708091A0338130A9F50E948B0600E02DC03C
S1130D80C02ED12CF601EE0FFF1FEE0FFF1FE2580D
S1130D90FC4CC081D18110E015C0E880F980F701D6
S1130DA08185833059F4C7010C960E94DD0A6C8357
S1130DB07D83672B19F482E0F70181870A80DB8148
S1130DC0C02D1F5FF601EE0FFF1FEE0FFF1FE2584D
S1130DD0FC4C8281181708F30F5F083088F20E94D8
S1130DE0E105DF91CF911F910F91FF90EF90DF907C
S1130DF0CF90089580E014C0E82FF0E0EE0FFF1FBD
S1130E00EE0FFF1FE258FC4C0190F081E02D0190A1
S1130E10F081E02D309719F09185923031F08F5F99
S1130E20883050F380E090E008958E2F9F2F08952E
S1130E30CF93DF931F92CDB7DEB78CED90E20E9483
S1130E4091098FB78983F89480917A3390917B3399
S1130E508DBF80917A3390917B339EBF80919E3376
S1130E6090919F330E94930589818FBF10929E3386
S1130E7010929F330E94FA06009719F00E94AF0562
S1130E8006C08AE793E380937C3390937D33A091EB
S1130E907C33B0917D330D901C900DBE1EBEFF912E
S1130EA0EF91DF91CF91BF91AF919F918F917F91FE
S1130EB06F915F914F913F912F911F910F91FF90EF
S1130EC0EF90DF90CF90BF90AF909F908F907F90E6
S1130ED06F905F904F903F902F901F900F900BBE9C
S1130EE00F900ABE0F9009BE0F9008BE0F900FBE60
S1130EF00F9008950F90DF91CF91089581E0809332
S1130F00A03308951092A0330895FFCF0895CF928F
S1130F10DF92EF92FF920F931F93CF93DF937C01A5
S1130F206B01EA01892B59F428E131E242E150E0F6
S1130F3066E271E28FE491E20E940604FFCF81E051
S1130F40D70113968C9386E090E00E9439018C01BE
S1130F50892B59F423E331E245E150E066E271E282
S1130F608FE491E20E940604FFCF86E0F80111921B
S1130F708A95E9F7D801CD92DC9211971496CD9316
S1130F80DC931597F70182818F5F82838F3F59F439
S1130F902DE331E24AE150E066E271E28FE491E24E
S1130FA00E940604FFCFD701ED91FC91309729F000
S1130FB0848195818C179D0760F0E801EA83FB83A7
S1130FC0F7010083118314C0DF010280F381E02D57
S1130FD001C0DF01309729F0848195818C179D072A
S1130FE098F3E801EA83FB8312960D931C931397FD
S1130FF0DF91CF911F910F91FF90EF90DF90CF90F1
S11310000895DC0112969C911297992349F191500D
S113101012969C931297ED91FC9111978081918186
S11310208617970751F4828193818D939C9315C001
S1131030DF010280F381E02D01C0DF01309729F048
S1131040808191816817790799F7309749F08281F7
S1131050938112968D939C931397CF010E948C0DCC
S113106008950F931F93CF93DF93DC0112962C9175
S11310701297223008F45DC00D90BC91A02D60E061
S113108070E051C004811581C281D3812C813D81DE
S11310902017310780F541155105C1F4DC010D918C
S11310A01C911197CD93DC9311970280F381E02D6D
S11310B022813381E8012A833B83ED91FC911197CE
S11310C0028313830D90BC91A02D16C01296CD936C
S11310D0DC931397C281D3812A813B81228333839A
S11310E01296CD91DC911397EA83FB8312960D90AF
S11310F0BC91A02D01C0DF011296ED91FC911397D4
S11311004F5F5F4F03C0FD0140E050E0EC012A81D6
S113111030E021503109421753070CF4B3CFA881B2
S1131120B9816F5F7F4FFC01228130E06217730742
S113113054F3DF91CF911F910F910895DC01ED914C
S1131140FC9103C00280F381E02D309729F0808167
S1131150918186179707B1F7CF01089581E08093B5
S1131160A20078940895EF920F93E12C08E120E017
S113117040E060E480E296E00E945209E0E2F6E09A
S113118080E4808384818064848300E020E040E004
S113119068E080E496E00E94520988E0809340066B
S11311A008E120E040E064E080EA96E00E94520911
S11311B0E0EAF6E084E080838481846084830F9194
S11311C0EF900895E0E5F0E080818660808360E040
S11311D080E00E941B098091510082FFFCCF809126
S11311E0510081FFFCCF81E00E94210960E082E090
S11311F00E94360908950E94B3080E94E2080E94E2
S11312005C030E94AE080E946B0908950F93CF936C
S1131210DF931F92CDB7DEB72FB72983F8941BBE97
S1131220FC0108ED04BF608389818FBF0F90DF91BB
S1131230CF910F910895682B81E490E00E940609F4
S113124008950F931F93CF93C82F00E410E0F80183
S11312506081687F682B80E490E00E940609F801B1
S113126080818C23CF911F910F9108952091560076
S1131270382F982F90959223611101C030E0932B61
S113128090935600813031F4E8E6F0E0808181608B
S113129080830895823029F4E0E6F0E08081816063
S11312A080830895EF920F93FC010E29442311F0DB
S11312B080E801C080E0082B222311F080E401C003
S11312C080E0082B9FB7F8946093B000008B9FBF19
S11312D00F91EF900895E0E4F6E088E0818384E0E4
S11312E0828341E060EA78E081EA93E30E94050AA0
S11312F0E091A133F091A23383E0858383818F7CD5
S113130080618383A0EAB8E08FEC16968C931697DD
S113131017961C928481806184838481886084838D
S113132008950F931F93CF93DF938C01C0E0D0E017
S113133009C0F801EC0FFD1F608181EA93E30E946C
S11313401F0A2196F80101900020E9F73197E01B6C
S1131350F10BCE17DF0768F3DF91CF911F910F9147
S113136008951F920F920FB60F9211240BB60F928D
S11313702F933F934F935F936F937F938F939F9399
S1131380AF93BF93EF93FF9381EA93E30E943F0AE5
S1131390FF91EF91BF91AF919F918F917F916F9149
S11313A05F914F913F912F910F900BBE0F900FBE05
S11313B00F901F9018951F920F920FB60F92112441
S11313C00BB60F922F933F934F935F936F937F933B
S11313D08F939F93AF93BF93EF93FF9381EA93E32C
S11313E00E945A0AFF91EF91BF91AF919F918F9103
S11313F07F916F915F914F913F912F910F900BBE11
S11314000F900FBE0F901F901895FC01608371839D
S11314104283EC5FFD4F1082319710823396108225
S1131420319710820895FC01EB5FFD4F20812F5FFF
S11314303196908181E0291301C080E008951F93C3
S1131440CF93DF93EC01162F0E94130A882399F09F
S1131450DE01AB5FBD4F9C91FE01E90FF11DED5F15
S1131460FE4F10839F5F9C93E881F98193812A81C9
S11314709C7F922B9383DF91CF911F910895FC0160
S1131480ED5FFD4F20812F5F31963081DC01ED91BE
S1131490FC9111974081231759F0FC01ED5FFD4F3A
S11314A03081A30FB11D13964C93208381E00895DE
S11314B080E00895CF93DF93FC01EA5FFD4F308114
S11314C031972081321307C0DC01ED91FC918381B7
S11314D08C7F838311C0FC01EA5FFD4F2081DC0116
S11314E0A20FB11DAD5FBE4F2C91EC01A881B98153
S11314F02C9380818F5F8083DF91CF9108950E9428
S1131500FB080E942E040E94C40C0E94850780E000
S113151090E00895FC01428353834091A835509193
S1131520A9356091AA357091AB35408351830895F4
S11315300F931F93FC018091A8359091A935A09138
S1131540AA35B091AB350081118120E030E08017DD
S11315509107A207B30738F0BC01CD01601B710BE2
S1131560820B930B0AC0801B910BA20BB30BBC0123
S1131570CD016453734F8F4F9F4F1F910F91089567
S1131580CF92DF92EF92FF92CF93DF93EC010E9410
S1131590980A4A815B816A01E12CF12C21E06C15E7
S11315A07D058E059F0508F420E0822FDF91CF9101
S11315B0FF90EF90DF90CF900895CF92DF92EF925B
S11315C0FF920F931F93CF93DF93EC010E94980A2D
S11315D02A813B81890120E030E06017710782078E
S11315E0930748F468017901C61AD70AE80AF90A88
S11315F0C701B60103C060E070E0CB01DF91CF9179
S11316001F910F91FF90EF90DF90CF9008958091FC
S1131610AC359091AD35A091AE35B091AF35019612
S1131620A11DB11D8093AC359093AD35A093AE351B
S1131630B093AF358C3C9C40A105B10540F01092AD
S1131640AC351092AD351092AE351092AF35209175
S1131650AC353091AD354091AE355091AF35A2E304
S1131660B0E00E94DA0C6093A8357093A93580939A
S1131670AA359093AB3508958091B2359091B335E6
S11316800597D4F38091B2359091B335059759F00D
S113169027E631E244E850E067E771E28EEC92E23B
S11316A00E940604FFCF8091B0359091B135019628
S11316B08093B0359093B1350895CF93DF9300D0E4
S11316C01F92CDB7DEB70E947E0720E031E047E8E5
S11316D051E260E08EEB9BE00E94CA04892B59F42E
S11316E020E730E249E450E067E771E283EE92E2FA
S11316F00E940604FFCF20E031E041E951E261E0BD
S113170081E19CE00E94CA0420E031E043EA51E216
S113171060E083EF9BE00E94CA0404C086E990E085
S11317200E947D068091B4359091B535892BB1F333
S113173048EE53E060E070E0CE0101960E948A0A10
S1131740CE0101960E94C00A8823D1F320E031E043
S11317504FEA51E260E08FE29CE00E94CA0480916B
S1131760B0359091B13501968093B0359093B135F1
S11317702496CDBFDEBFDF91CF910895CF93DF9341
S113178000D01F92CDB7DEB748EE53E060E070E0C2
S1131790CE0101960E948A0A04C086E990E00E9464
S11317A07D06CE0101960E94C00A8823B1F320E091
S11317B031E043EA51E260E083EF9BE00E94CA0417
S11317C089EB91E20E9491098091B4359091B535ED
S11317D001968093B4359093B5352496CDBFDEBF82
S11317E0DF91CF910895CF93DF9300D01F92CDB7AF
S11317F0DEB748EE53E060E070E0CE0101960E944F
S11318008A0ACE0101960E94C00A8823D1F38BEE86
S113181091E20E9491092496CDBFDEBFDF91CF9162
S11318200895CF93DF9300D01F92CDB7DEB748EC75
S113183050E060E070E0CE0101960E948A0ACE0179
S113184001960E94C00A8823D1F380E192E20E94AB
S113185091092496CDBFDEBFDF91CF910895CF9338
S1131860DF9300D01F92CDB7DEB748EC50E060E0C4
S113187070E0CE0101960E948A0ACE0101960E9470
S1131880C00A8823D1F38BE492E20E949109249642
S1131890CDBFDEBFDF91CF910895CF93DF9300D00A
S11318A01F92CDB7DEB744EF51E060E070E0CE01A7
S11318B001960E948A0ACE0101960E94C00A8823DA
S11318C0D1F3CE0101960E94C00A81110BC020E71A
S11318D032E24DE750E067E771E288ED92E20E9460
S11318E00604FFCF8091B0359091B1350196809375
S11318F0B0359093B1352496CDBFDEBFDF91CF9143
S1131900089589ED90E20E94910908958091B2357D
S11319109091B33501968093B2359093B335E0E25C
S1131920F6E0948180E489278483089584E992E22F
S11319300E9491098091B0359091B1358330910521
S113194019F02AE832E202C02FE832E23F932F93E3
S113195023E030E0281B390B3F932F939F938F9301
S113196087EA92E29F938F9385EF92E39F938F93FD
S11319700E942C0E85EF92E30E9491098DB79EB7C9
S11319800A968DBF9EBF0895CF930E94810CC0E03C
S11319900BC0EC2FF0E0EE0FFF1FEA5FFF4D01904C
S11319A0F081E02D1995CF5FC33098F30E94960C17
S11319B0CF9108950E94E50CA59F900DB49F900DC2
S11319C0A49F800D911D11240895A29FB001B39F7F
S11319D0C001A39F700D811D1124911DB29F700D34
S11319E0811D1124911D08950F931F93CF93DF93AD
S11319F08230910510F482E090E0E091B835F091E6
S1131A00B93520E030E0A0E0B0E0309719F1408132
S1131A1051810281138148175907C8F0841795072B
S1131A2069F4109731F012960C93129713961C9345
S1131A3027C00093B8351093B93522C0211531055C
S1131A4019F04217530718F49A01BD01EF01DF01A1
S1131A50F801DBCF21153105F9F0281B390B2430AF
S1131A60310580F48A819B816115710521F0FB01A8
S1131A708283938304C08093B8359093B935FE0173
S1131A80329644C0FE01E20FF31F819391932250DA
S1131A903109288339833AC02091B6353091B7355E
S1131AA0232B41F420910220309103202093B6355A
S1131AB03093B73520910020309101202115310554
S1131AC041F42DB73EB74091042050910520241BCA
S1131AD0350BE091B635F091B735E217F307A0F472
S1131AE02E1B3F0B2817390778F0AC014E5F5F4F70
S1131AF02417350748F04E0F5F1F4093B6355093B7
S1131B00B7358193919302C0E0E0F0E0CF01DF911B
S1131B10CF911F910F910895CF93DF93009709F40C
S1131B2081C0FC01329712821382A091B835B09122
S1131B30B935109781F420813181820F931F209150
S1131B40B6353091B7352817390751F5E093B635D6
S1131B50F093B73567C0ED0120E030E0CE17DF0722
S1131B6040F44A815B819E0141155105F1F0EA017F
S1131B70F5CFC283D38340815181840F951FC81749
S1131B80D90759F488819981840F951F029680831F
S1131B9091838A819B81828393832115310529F462
S1131BA0E093B835F093B9353DC0E901EA83FB838E
S1131BB049915991C40FD51FEC17FD0761F4808139
S1131BC09181840F951F0296E9018883998382810C
S1131BD093818A839B83E0E0F0E012968D919C913F
S1131BE01397009719F0FD01DC01F7CF8D919C91BB
S1131BF011979D012E5F3F4F820F931F2091B635A1
S1131C003091B7352817390769F4309729F41092C1
S1131C10B8351092B93502C012821382A093B6353A
S1131C20B093B735DF91CF910895FB01DC0102C079
S1131C3001900D9241505040D8F70895DC0101C045
S1131C406D9341505040E0F70895FB01DC01019091
S1131C500D920020E1F708950F931F93CF93DF9324
S1131C60CDB7DEB72E97CDBFDEBF0E891F8986E0C4
S1131C708C8309831A838FEF9FE78D839E83AE0144
S1131C80465E5F4F688D798DCE0101960E94550E98
S1131C90EF81F885E00FF11F10822E96CDBFDEBFD5
S1131CA0DF91CF911F910F9108952F923F924F9200
S1131CB05F926F927F928F929F92AF92BF92CF92D8
S1131CC0DF92EF92FF920F931F93CF93DF93CDB7E1
S1131CD0DEB72B97CDBFDEBF6C017B018A01FC010F
S1131CE016821782838181FFCCC1CE0101963C010B
S1131CF0F6019381F70193FD859193FF81917F0113
S1131D00882309F4BAC1853239F493FD859193FF90
S1131D1081917F01853229F4B60190E00E946F1011
S1131D20E7CF912C212C312CFFE1F315D8F08B3225
S1131D3079F038F4803279F08332A1F4232D2061D4
S1131D401DC08D3261F0803369F4232D216016C0EB
S1131D50832D8260382EE32DE4603E2E2AC0F32DBD
S1131D60F8601DC037FC2DC020ED280F2A3040F04C
S1131D708E32B9F436FC81C1232D2064322E19C071
S1131D8036FE06C08AE0989E200D1124922E11C0C2
S1131D90EAE02E9E200D1124222EF32DF0623F2E18
S1131DA008C08C3621F4832D8068382E02C0883612
S1131DB041F4F70193FD859193FF81917F01811196
S1131DC0B3CF982F9F7D9554933028F40C5F1F4F09
S1131DD09FE399830DC0833631F0833771F08335E7
S1131DE009F059C021C0F801808189830E5F1F4F1B
S1131DF088248394912C530113C02801F2E04F0EE0
S1131E00511CF801A080B18036FE03C0692D70E03A
S1131E1002C06FEF7FEFC5010E9464104C01820184
S1131E20F32DFF773F2E16C0280122E0420E511CED
S1131E30F801A080B18036FE03C0692D70E002C0B5
S1131E406FEF7FEFC5010E9459104C01F32DF0682C
S1131E503F2E820133FC1BC0822D90E08816990628
S1131E60B0F4B60180E290E00E946F102A94F4CF9F
S1131E70F50137FC859137FE81915F01B60190E051
S1131E800E946F1021102A9421E0821A9108811473
S1131E90910471F7E8C0843611F0893641F5F801F0
S1131EA037FE07C060817181828193810C5F1F4F6F
S1131EB008C060817181072E000C880B990B0E5F9E
S1131EC01F4FF32DFF763F2E97FF09C09095809505
S1131ED0709561957F4F8F4F9F4FF0683F2E2AE09A
S1131EE030E0A3010E94AB10882E861845C08537C8
S1131EF031F4232D2F7EB22E2AE030E025C0932D1D
S1131F00997FB92E8F36C1F018F4883579F0B5C0B1
S1131F10803719F0883721F0B0C0E92FE061BE2E78
S1131F20B4FE0DC0FB2DF460BF2E09C034FE0AC000
S1131F30292F2660B22E06C028E030E005C020E13B
S1131F4030E002C020E132E0F801B7FE07C0608152
S1131F507181828193810C5F1F4F06C06081718102
S1131F6080E090E00E5F1F4FA3010E94AB10882E0B
S1131F708618FB2DFF773F2E36FE0DC0232D2E7FB6
S1131F80A22E891458F434FE0BC032FC09C0832DF0
S1131F908E7EA82E05C0B82CA32C03C0B82C01C07B
S1131FA0B92CA4FE0FC0FE01E80DF11D8081803321
S1131FB021F49A2D997EA92E09C0A2FE06C0B394DD
S1131FC0B39404C08A2D867809F0B394A3FC11C09D
S1131FD0A0FE06C0B21488F4280C922C9B180EC0E4
S1131FE0B21460F4B60180E290E00E946F10B394E2
S1131FF0F7CFB21418F42B1802C0982C212CA4FE8D
S113200010C0B60180E390E00E946F10A2FE17C0DA
S1132010A1FC03C088E790E002C088E590E0B60127
S11320200CC08A2D867859F0A1FE02C08BE201C053
S113203080E2A7FC8DE2B60190E00E946F10891443
S113204038F4B60180E390E00E946F109A94F7CFC1
S11320508A94F301E80DF11D8081B60190E00E949D
S11320606F108110F5CF222009F442CEB60180E230
S113207090E00E946F102A94F6CFF6018681978132
S113208002C08FEF9FEF2B96CDBFDEBFDF91CF91C4
S11320901F910F91FF90EF90DF90CF90BF90AF9082
S11320A09F908F907F906F905F904F903F902F9074
S11320B00895FC010590615070400110D8F7809597
S11320C090958E0F9F1F0895FC0161507040019000
S11320D00110D8F7809590958E0F9F1F08950F9348
S11320E01F93CF93DF93FB01238121FD03C08FEF67
S11320F09FEF2CC022FF16C0468157812481358171
S11321004217530744F4A081B1819D012F5F3F4FD3
S1132110208331838C93268137812F5F3F4F268321
S1132120378314C08B01EC01FB010084F185E02DA1
S11321301995892BE1F6D80116968D919C911797E4
S1132140019616968D939C931797CE01DF91CF91AC
S11321501F910F910895FA01AA27283051F12031D7
S113216081F1E8946F936E7F6E5F7F4F8F4F9F4F27
S1132170AF4FB1E03ED0B4E03CD0670F781F891F69
S11321809A1FA11D680F791F8A1F911DA11D6A0F37
S1132190711D811D911DA11D20D009F468943F91EA
S11321A02AE0269F11243019305D3193DEF6CF01E9
S11321B00895462F4770405D4193B3E00FD0C9F7AF
S11321C0F6CF462F4F70405D4A3318F0495D31FD1C
S11321D04052419302D0A9F7EACFB4E0A69597956F
S11321E0879577956795BA95C9F700976105710545
S11321F008959B01AC010A2E06945795479537958F
S11322002795BA95C9F7620F731F841F951FA01DE8
S10922100895F894FFCFCD
S11322160000BA3520003C0B4D0C5D0B4173736511
S11322267274206661696C757265210A0D46696C63
S1132236653A2025730A0D4C696E653A2025640AB1
S11322460D4578703A2025730A0D007072696F7215
S1132256697479203C204D41585F5052494F524988
S11322665459002E2E2F2E2F6B65726E656C2E63BD
S113227600737461636B53697A65203E20343500BC
S11322866320213D204E554C4C00632D3E737461F2
S1132296636B20213D204E554C4C00632D3E7461EA
S11322A6736B4E616D6520213D204E554C4C005399
S11322B67769746368696E6720746F207461736BE1
S11322C62025730A0D00537461636B206F76657263
S11322D6666C6F7720646574656374656420696EE3
S11322E6207461736B202573210A0D000A0D546155
S11322F6736B2063617567687420696E206B657201
S11323066E656C2063617463682066756E637469B8
S11323166F6E0A0D006B65726E656C5F6372656144
S113232674655F7461736B00717565756520213D15
S1132336204E554C4C002E2E2F2E2F71756575652B
S11323462E63006E20213D204E554C4C0071756560
S113235675652D3E73697A65203C203235350071EA
S1132366756575655F6164645F776974685F7072CB
S1132376696F72697479007469636B5F636F756EF4
S113238674203D3D2035002E2E2F2E2F756E697438
S1132396746573742E630054657374205461736B8F
S11323A6004C6F77205072696F726974792054619A
S11323B6736B0054657374205461736B2032005040
S11323C66F7374205461736B00536F6D65626F6431
S11323D679206F6E636520746F6C64206D6520745C
S11323E6686520776F726C642077617320676F6EFF
S11323F66E6120726F6C6C206D6500492061696E98
S113240674207468652073686172706573742074CF
S11324166F6F6C20696E207468652073686564004C
S113242653686520776173206C6F6F6B696E6720E4
S11324366B696E64206F662064756D6220776974BB
S113244668206865722066696E67657220616E64CD
S113245620686572207468756D6200496E20746820
S113246665207368617065206F6620616E204C205C
S11324766F6E2068657220666F72656865616400B8
S113248674696D65725F6861735F6578706972659A
S113249664282674696D657229004661696C00506A
S11324A6617373000A0D54657374732066696E69EB
S11324B6736865640D0A005061737365643A202578
S11324C6640A0D4661696C65643A2025640A0D0A3E
S11324D60D526573756C743A2025730A0D00746584
S11324E673745F7469636B00746573745F74696D88
S11324F6657200746573745F6372656174655F7495
S107250661736B008E
S9030000FC
